:020000041000EA
:1000000000B5324B212058609868022188439860DF
:10001000D860186158612E4B002199600221596106
:100020000121F02299502B49196001219960352056
:1000300000F044F80222904214D00621196600F024
:1000400034F8196E01211966002018661A6600F04E
:100050002CF8196E196E196E052000F02FF8012189
:100060000842F9D1002199601B49196000215960AB
:100070001A491B48016001219960EB211966A021F2
:10008000196600F012F800219960164914480160C1
:100090000121996001BC002800D000471248134993
:1000A000086003C880F30888084703B5996A0420EC
:1000B0000142FBD001200142F8D103BD02B5186610
:1000C0001866FFF7F2FF186E186E02BD00000240BE
:1000D000000000180000070000035F00212200005C
:1000E000F4000018222000A00001001008ED00E03C
:1000F00000000000000000000000000074B24E7A12
:1001000000200420F7010010C3010010C5010010F9
:10011000C1010010C1010010C1010010C101001097
:10012000C1010010C1010010C1010010C701001081
:10013000C1010010C1010010C9010010CB01001065
:10014000CD010010CD010010CD010010CD01001037
:10015000CD010010CD010010CD010010CD01001027
:10016000CD010010CD010010CD010010CD01001017
:10017000CD010010CD010010CD010010CD01001007
:10018000CD010010CD010010CD010010CD010010F7
:10019000CD010010CD010010CD010010CD010010E7
:1001A000CD010010CD010010CD010010CD010010D7
:1001B000CD010010CD010010CD010010CD010010C7
:1001C00000BE00BE00BE00BE00BE00BEEFF3058054
:1001D000103800BEF2EB8871388000105880001093
:1001E0003802001090A31AE71E481F49086006C88D
:1001F00081F3088810471D480068002801D019487D
:10020000F3E70DA40ECC002902D000F012F8F9E7B4
:100210001749184A002000E001C19142FCD116495B
:100220008847164988471649884700BEFDE701C937
:1002300001C29A42FBD3704758800010C0000020D2
:10024000AC17002044970010000004200000042098
:10025000449700100010042000100420000000004B
:10026000704700000000000008ED00E0000000D032
:10027000AC170020AC240020D93D001099030010D9
:100280009B3D0010F8B5C0460448054B10B58342AD
:1002900003D0044B002B00D0984710BDAC170020B2
:1002A000AC1700200000000006480749091A8B100F
:1002B000C90FC91810B5491003D0044B002B00D04A
:1002C000984710BDAC170020AC17002000000000BC
:1002D00010B5074C2378002B09D1FFF7D5FF054B4C
:1002E000002B02D0044800E000BF0123237010BDA2
:1002F000281A002000000000406F0010054B10B5C8
:10030000002B03D00449054800E000BFFFF7CCFFF5
:1003100010BDC046000000002C1A0020406F0010E5
:1003200070B584B0154C0423029301937433009389
:10033000693B0E221249200000F068F8114D052398
:100340000293019374330093683B10220E492800F6
:1003500000F05CF80D4E0623029301937433009372
:10036000673B12220A49300000F050F80948330078
:100370002A00210000F092F804B070BDB0190020EE
:1003800000003E43D819002000009143001A0020CD
:1003900000002042B017002000B583B003F03AFE01
:1003A000FA20800001F024F9144803F067FE1920B8
:1003B00000F08CFCD0231B06802292045A625A6102
:1003C000002200230092019300F0E8FB0AE0009A6B
:1003D000019B0120002112184B410092019309302A
:1003E00001F006F90099019A002A03D1EFD1044BDC
:1003F0009942ECD9002003B000BDC046406F001008
:100400003F420F0010B5FFF78BFF10BDF0B5D64689
:100410004F464646C0B50400894690461E0008ABCC
:100420001B789A4609AB1F780AAB1D78002303712D
:10043000002200238260C3601030534632004146E0
:1004400000F078FA5346237743466377A677E77739
:100450002023E5544B466362380000F037FC012648
:100460003300BB40D0221206904693620022012145
:10047000380000F00FFC280000F028FCAE40434696
:100480009E6200220121280000F004FC002323606A
:100490002000E0BCBA46B146A846F0BD70B50400E5
:1004A0000025057000206060A160E060206162614D
:1004B000A061E06123626062A06201F065F92063DF
:1004C00061637823E5540133E554200070BDF8B52D
:1004D00004000E00101CEC21890502F035FA071CFF
:1004E00002F07EFA85B2002D17D0280002F050FAF3
:1004F000011C381C02F023FA8721C90502F03FFADB
:1005000002F06EFAC0B200022D042843710089196E
:10051000C9006418C8342060F8BD0020F3E700006B
:1005200070B504000D001022002102F01FFB802393
:100530005B022360F8235B0263608023DB02A3601D
:10054000C0231B03A3602B000E33ED011B031D43CF
:1005500065608023DB05E360024A15402B4363603E
:10056000200070BDFFFFFF9F70B504000D0010223A
:10057000002102F0FBFA80235B022360F8235B0278
:1005800063608023DB02A360C0231B03A3602B00F6
:100590000E33ED011B031D4365608023DB05E36023
:1005A000024A15402B436360200070BDFFFFFF9F90
:1005B00070B504000D001022002102F0D7FA80234C
:1005C0005B022360F8235B0263608023DB02A3608D
:1005D000C0231B03A3602B000C33ED011B031D4341
:1005E00065608023DB05E360024A15402B436360AE
:1005F000200070BDFFFFFF9FF0B5DE4657464E4618
:10060000C0B586B005000F0092461E00110002A87A
:10061000FFF786FF374BEB181B0DDBB20633DBB25F
:100620009B4619000E9800F01BFB0123994600938E
:100630000E9A3900280003F095FF7C00E419E400CD
:100640002C19DC3423682C4A13400E9A1343802261
:10065000520313432360059B1F218B430E980140D7
:100660000B43059325490B401A4305925946300028
:1006700000F0F6FA4B46009332003900280003F0F0
:1006800071FF23681E4A1340B60233432360059B63
:100690001340F822D2011640334305930499194BB5
:1006A0000B408022920213430493174B19400A43D4
:1006B0008023DB051343049302AB52463900280024
:1006C00003F0AAFF0F9B59007D2001F0DFFA02F032
:1006D0005FF9021C39002800FFF7F9FE2A684B4633
:1006E000BB4013432B6006B0E0BCBB46B246A946F4
:1006F000F0BDC0460000E0AFE0FF0FFCFFFF0FFCC5
:10070000FF83FFFFFFFFF5C1FFFFF501F0B5DE46F8
:1007100057464E46C0B586B005000F0092461E00F3
:10072000110002A8FFF720FF374BEB181B0DDBB2BF
:100730000633DBB29B4619000E9800F091FA0123B4
:10074000994600930E9A3900280003F00BFF7C00B5
:10075000E419E4002C19DC3423682C4A13400E9A67
:1007600013438022520313432360059B1F218B43B5
:100770000E9801400B43059325490B401A430592FF
:100780005946300000F06CFA4B46009332003900B5
:10079000280003F0E7FE23681E4A1340B6023343E5
:1007A0002360059B1340F822D20116403343059382
:1007B0000499194B0B408022920213430493174B68
:1007C00019400A438023DB051343049302AB5246CE
:1007D0003900280003F020FF0F9B59007D2001F015
:1007E00055FA02F0D5F8021C39002800FFF76FFE19
:1007F0002A684B46BB4013432B6006B0E0BCBB46A7
:10080000B246A946F0BDC0460000E0AFE0FF0FFCD5
:10081000FFFF0FFCFF83FFFFFFFFF5C1FFFFF501A7
:10082000F0B5DE4657464E46C0B586B005000F000F
:1008300092461E00110002A8FFF7BAFE374BEB18D4
:100840001B0DDBB20633DBB29B4619000E9800F09D
:1008500007FA0123994600930E9A3900280003F005
:1008600081FE7C00E419E4002C19DC3423682C4A56
:1008700013400E9A13438022520313432360059BB7
:100880001F218B430E9801400B43059325490B40D4
:100890001A4305925946300000F0E2F94B460093A6
:1008A00032003900280003F05DFE23681E4A134021
:1008B000B60233432360059B1340F822D201164051
:1008C000334305930499194B0B4080229202134342
:1008D0000493174B19400A438023DB051343049309
:1008E00002AB52463900280003F096FE0F9B5900D8
:1008F0007D2001F0CBF902F04BF8021C39002800F2
:10090000FFF7E5FD2A684B46BB4013432B6006B05A
:10091000E0BCBB46B246A946F0BDC0460000E0AF11
:10092000E0FF0FFCFFFF0FFCFF83FFFFFFFFF5C1A0
:10093000FFFFF50170B582B0040001704270792BA1
:100940002AD07A2B4FD0782B74D13D4B1B78DA0705
:1009500073D43B4A01210B43137001238370394840
:10096000A060012103F0CAFD60602078062100F03C
:1009700077F96078062100F073F93349A06803F035
:10098000D9FD0200237865786168A0680826019681
:100990000095FFF731FE50E0294B1B789A074CD4A5
:1009A000274A02210B431370022383702548A0605D
:1009B000012103F0A3FD60602078062100F050F9CA
:1009C0006078062100F04CF92049A06803F0B2FDE0
:1009D0000200237865786168A06808260196009572
:1009E000FFF794FE29E0164B1B785A0725D4144ACA
:1009F00004210B431370042383701548A060012168
:100A000003F07CFD60602078072100F029F9607810
:100A1000072100F025F90F49A06803F08BFD0200C3
:100A2000237865786168A068082601960095FFF72D
:100A3000F7FE02E0084803F0F2FA200002B070BDB1
:100A4000A824002000002050F0760010C876001086
:100A500000003050A47600104C6F001000B585B037
:100A60000F226A44107004480023009301332721A9
:100A700003F090FF05B000BD48120020D0B504007F
:100A80009626B60000273000390000F09FFD0420B4
:100A90002043C0B2FFF7E2FF3000390000F096FDBE
:100AA000042320009843FFF7D9FF3000390000F0FD
:100AB0008DFDD0BD70B50F2305009D436DB249B2C9
:100AC0000D4308231D43EDB2000101434CB21C430A
:100AD000E4B22800FFF7C2FF2800FFF7CFFF200095
:100AE000FFF7BCFF2000FFF7C9FF70BD10B5002164
:100AF0000120FFF7DFFF10BD10B5002805D18031C0
:100B0000C8B20021FFF7D6FF10BDC031F8E710B51D
:100B1000040003E001340121FFF7CCFF2078002816
:100B2000F8D110BD70B505000C001A481A4903F041
:100B300007FF0321280000F093F80321200000F0B4
:100B40008FF800220121280000F0A4F800220121E2
:100B5000200000F09FF800210320FFF7ABFF0021E9
:100B60000320FFF7A7FF00210320FFF7A3FF0021C9
:100B70000220FFF79FFF00210620FFF79BFF0021C7
:100B80002820FFF797FF00210C20FFF793FFFFF7C6
:100B9000ADFF70BD48120020A086010010B50521F0
:100BA0000420FFF7BFFF00210020FFF7A5FF054845
:100BB000FFF7ADFF05210120FFF79EFF0248FFF779
:100BC000A6FF10BD606F0010746F001070B582B08A
:100BD00004000E00551A01950F2D0ED800942068C0
:100BE0002A00310003F030FF002200920199616079
:100BF00023685B181A7002B070BD002201A903F0CF
:100C000005FF2060019BA360E8E7000070B50400C9
:100C10000D0003000833036000290AD0080005F026
:100C2000E9FE2A18002329002000FFF7CFFF20004B
:100C300070BD014803F0BAFEB06F001000B583B07C
:100C40000349044801AAFFF7E1FF03B000BDC04615
:100C50007C6F0010F81D002010B5FFF7EFFF10BDEE
:100C600010B58300084A9A18146840225440803214
:100C70002240064CA44663441A60C000044B9C46C4
:100C80006044416010BDC04604C0014004D0014032
:100C90000040014080000C4B9C46604400290ED06F
:100CA0000823002A0DD004221343026853400C226B
:100CB0001340802252019446604403607047002331
:100CC000EFE70022F0E7C04604C0014010B5012361
:100CD0008340D0221206936293610521FFF7C0FF83
:100CE00010BD00000FB400B583B0084803F097F9B9
:100CF000049B002B07D005A90191180003F09EF971
:100D0000034803F08CF9012003F024F8E46F00108D
:100D1000F46F0010EFF3108072B6034B1B68002BCA
:100D2000FBD0BFF35F8F70472C0100D0BFF35F8F04
:100D3000024B00221A6080F3108870472C0100D00B
:100D4000F8B506000C001500FFF7E4FFE308F718FC
:100D5000F15C07222240012393400B4205D1DBB214
:100D60000B433B70FFF7E2FFF8BD21002800FFF7BF
:100D7000B9FFF0B583B00600019114001F00FFF722
:100D8000C9FF00E00134BC420CD8E308F518F35C5D
:100D90000721214001228A401A42F3D1D2B21A43DC
:100DA0002A7001E001246442FFF7C0FF002C02DB3F
:100DB000200003B0F0BD019B002BF9D00898FFF78D
:100DC00091FF0000054A1078431CDBB21370172B0B
:100DD00002D9130010221A707047C046F411002087
:100DE000002307E0054A9A189200BFF35F8F0021A5
:100DF000116001331F2BF5D97047C0464000003405
:100E0000074B9B68103080001950BFF35F8FBFF312
:100E10005F8F044B0021196082F310887047C04631
:100E200000ED00E0240100D00048704700E400E03D
:100E300010B5FFF7F9FF002302E0034A04C00133B5
:100E4000072BFAD910BDC04680808080002A05D0CB
:100E5000044BC0225200995019607047014A802308
:100E6000D150FAE700E100E010B50A001F2303406B
:100E7000012199404009FFF7E9FF10BD024B9B6833
:100E800010308000C058704700ED00E070B50400DD
:100E90000D00EFF3108672B60C4B1B68002BFBD0D5
:100EA000BFF35F8F2000FFF7E9FF094B984201D0A5
:100EB000A84205D1320029002000FFF7A1FF70BD34
:100EC000044B054A0548E12102F06AFF240100D0E5
:100ED000CD0100104C700010187700101070001039
:100EE000024B9C4661448900016070474000003419
:100EF00010B50400FFF766FF01002000FFF7F0FFC8
:100F0000FF232371BFF35F8F10BD10B50400FFF7FF
:100F100059FF01002000FFF7E3FFFF2323710023A7
:100F20006371BFF35F8F10BD10B50D4C09E00D4B21
:100F30000D4A0E481A2102F033FF2000FFF7D8FFB8
:100F400008340B4B9C4209D22368002BF5D0012BAF
:100F5000EDD12000FFF7D9FF0834F2E710BDC046FD
:100F6000941700208470001058770010A4700010AF
:100F7000AC17002000040843704700000A4B1968B2
:100F8000EFF3108372B60A68002AFCD0BFF35F8FBC
:100F9000054A1268BFF35F8F0021116083F3108848
:100FA00040BF002000217047A4240020F0B5DE4699
:100FB00057464E464546E0B583B0EFF3058303221E
:100FC0001A400092B04B9200D35898461B78009A72
:100FD000934207D10123009A93401A000193AB4B2F
:100FE0001A6015E1AA4BAB4AAB48922102F0D8FE39
:100FF00043465A694B465B004B44DB0093469B4497
:101000005B469E68DF68A54800F0A8FB801BB941DD
:10101000002900DA06E1002F60DB5B461C69A04B6B
:101020009C4245D043460820185E5B46598889B2E9
:10103000FFF7A0FF5B465969A04704000D0023009D
:101040002B434BD0002D3DDA30003900001BA94165
:101050005B469860D96000241C5F002C00DAE1E058
:1010600043465A69924663001B19DB0053449A6851
:10107000DB6805000E00AD1A9E41002E00DAD1E0BB
:1010800043461C8147460837BC46634600255D5FE2
:10109000002D1DDB6C006419E4005444A268E36871
:1010A00006000F00B61A9F41002F11DBA446ECE7A3
:1010B0005B465C6923692000984700280ED065686C
:1010C0002468BCE7754800F049FB00196941BFE797
:1010D0005B461D804B4662461380A3E05B460022C0
:1010E0009B5E424613811269EFF3108372B611685A
:1010F0000029FCD0BFF35F8F42460221525E594661
:101100000A804246494651801269BFF35F8F002131
:10111000116083F3108885E043461969EFF310836B
:1011200072B60A68002AFCD0BFF35F8F42469288ED
:1011300012B291460122524241468A800A69BFF3A7
:101140005F8F0021116083F310881AE09B465B4695
:1011500000229A5E002A0BDB53009B18DB005344ED
:101160009868D96826002F00361A8F41002FEDDAD3
:101170004B4659460B80634600215B5E99466346A9
:101180001A804B46002B53DB43465A6992464B4626
:101190005B004B44DB009C46D44463469C68DD689E
:1011A00046460836B346D2E700234246937141468D
:1011B000083143460820185E11E001225242D3173D
:1011C000A260E360434608229B5E834206D00D8006
:1011D000434608229B5E2380434618812800431C17
:1011E0002AD043465A6943001B18DB00D418D55E49
:1011F00063881BB2002BE0DB2100EFE76B1C2AD1D8
:10120000264800F0ABFA241A8D41002D34DC31D091
:10121000224B019A5A63434608229B5E9946002B53
:1012200000DBE5E643469B881BB2002B00DB73E73F
:1012300043469B79002BB7D1434608229A5E002A89
:101240001ADB4346596953009B18DB00CB189C6896
:10125000DD68631CD2D011498A6AA01A009B04334E
:101260009B005B589B1A9842CAD2009B04339B0098
:101270005C50C5E7002CCBD040BF03B0F0BCBB46F0
:10128000B246A946A046F0BD902200203C70054021
:1012900030710010847700105C7100100040054030
:1012A000AD0F001070B504000D0011000126AE4016
:1012B00006622800FFF7EAFD01212800FFF7D4FDB0
:1012C000024B9C466444266070BDC0463820000036
:1012D000F8B5CE46474680B50600894690461F00C1
:1012E000C160FFF76FFD154B9C4660448000306184
:1012F00043463370BBB27381D022120612787270EB
:10130000012252423281B2809B187380002406E091
:10131000621E736965002D19ED005A530134BC42F9
:10132000F6D3074B42469200D650064A41464846FD
:10133000FFF7B8FFC0BCB946B046F8BD4000003466
:1013400090220020AD0F001010B5064B1B69002B3A
:1013500001D0044810BD044B044A0548652102F041
:101360001FFDC046F8110020947100106C7700102A
:101370005C710010F8B504000569EFF3108072B6D7
:1013800029680029FCD0BFF35F8F0221665E656982
:1013900071008919C9006D18002E02DB0027E95F72
:1013A00061802169BFF35F8F00270F6080F3108891
:1013B000002E2CDB0699296107996961AA60EB6010
:1013C0006B8801335B04590C002B00D1012169802B
:1013D0003000FFF7CFFD2169EFF3108372B60A6882
:1013E000002AFCD0BFF35F8FA2882A80A6802269E2
:1013F000BFF35F8F0021116083F31088E3682178C9
:1014000001228A4003498C4663441A60F8BD0120DA
:101410004042FBE73C20000070B582B0060014009B
:101420001D0008AB1B78002B07D100F0ADF922009E
:101430002B00121A8B41002B0ADB079B0193069BA2
:10144000009322002B003000FFF794FF02B070BD24
:101450000020FBE7F0B5C64600B584B0050088461D
:1014600016001F000AAB1C78FFF76EFF029401976D
:1014700000962A004346FFF7CFFF04B080BCB84671
:10148000F0BD000030B5030008145A8990422EDAEE
:101490005C6942001218D200A2181D69EFF3108493
:1014A00072B628680028FCD0BFF35F8F508880B2E6
:1014B0000904090C884212D000201A69BFF35F8F1B
:1014C0000021116084F31088002811D0DA681B789D
:1014D00001319940074B9C466244116008E006497F
:1014E000014389B2518001229A710120E5E7002071
:1014F00030BDC0463C2000000080FFFF10B5040056
:10150000FFF722FF2100FFF7BDFF10BDF0B583B04C
:1015100006000F00EFF30583002B1AD10624644266
:10152000E517A4197D418D4202D803D1844201D927
:101530000024002500F028F922002B00121A8B410C
:10154000002B0BDC08D03000390000F025F903B087
:10155000F0BD1A48FFF7C6FB002AF4D0184A002352
:10156000009320002900FFF775FF002818DAEAE74A
:10157000002300E00023002BE5D1124B1968EFF3A4
:10158000108372B60A68002AFCD0BFF35F8F0D4A41
:101590001268BFF35F8F0021116083F3108820BFB2
:1015A000094B5B6A9D42E5D80749896AA14203D28B
:1015B0009D42DDD00123DEE70123DCE7B871001096
:1015C0007D0F0010A42400200040054070B50400E9
:1015D0000D0000F0D9F800196941002902DBFFF77E
:1015E00095FF70BD012040420049F8E7FFFFFF7FF3
:1015F00010B5FA2292000023002101F083F9FFF7D1
:10160000E5FF10BD70B582B005000C00EFF3058357
:10161000002B12D03A4B5B6A8B4209D3384A926A4C
:10162000824208D28B4201D0012002E0002000E07B
:10163000002002B070BD0120FBE7FFF785FEC16806
:1016400003788A6A2E00A81A04339B005B589B1A01
:10165000984212D320BF2A4B5B6A9C4209D8284A81
:10166000926A954207D99C4201D00120E1E700200F
:10167000DFE70020DDE70120DBE7224A00230093BB
:1016800028002100FFF7E6FE00280BDD1C4B5B6AFB
:101690009C421BD81A4A926A954229D99C4213D07F
:1016A000012314E0164B5B6A9C4209D8144A926AE3
:1016B000954207D99C4201D00120BAE70020B8E743
:1016C0000020B6E70120B4E7002300E00023002B50
:1016D00000D120BFFFF712FF094B5B6A9C420BD879
:1016E000074A926A964209D99C4203D00120A0E79A
:1016F0000123ECE700209CE700209AE7012098E70F
:10170000004005407D0F0010004870470040054034
:1017100010B50B4B1B69002B04D00A480A21FFF7B8
:10172000DFFB10BDFFF7F0FF0400032100F00CF811
:101730000348102303222100FFF7CAFDEDE7C0464E
:10174000F8110020A424002010B5024A0248FFF737
:10175000F7FA10BD08720010542200200200436AFC
:10176000906A1900536A9942FAD17047416A00E0C1
:10177000416A9942FCD300E0416A994202D1816AF0
:101780009142F9D37047000010B50248FFF7E6FF19
:1017900010BDC0460040054010B502000B000248D5
:1017A000FFF7E4FF10BDC04600400540F8B5D6463F
:1017B000474680B506000D001700984644002418DF
:1017C000A400294B9C4664446368089A934200D263
:1017D0006260331FDBB29A46012B2ED980221201A0
:1017E000C0239B01E3181A60204BB200D158002996
:1017F00007D0586900F04AFA013043001B18033B38
:10180000FDD27F0123685F40E0233B4080225201EC
:10181000A21813605346012B1AD980239B01E318A9
:10182000802212011A60089B6360104BB60042468A
:10183000F250C0BCBA46B046F8BD012DCED103224D
:10184000C0239B01E3181A60A368DB07FCD5D8E727
:101850002168694003230B401360A3680122AA405A
:101860001A42FAD0D9E7C046008000405C2200202E
:10187000F0B583B005000E0017001800089900F0BD
:1018800005FA0300089A140200943A003100280077
:10189000FFF78CFF03B0F0BD10B582B08024640068
:1018A0000094FFF783FF02B010BD0000014B8000E1
:1018B000C05870475C220020F0B5C64600B5040051
:1018C0000E0017001D00374800F0E0F98046364B47
:1018D000FA18364B9A4239D80100380000F0D6F990
:1018E0000200103A98235B009A4235D86B1E062BF3
:1018F00038D8069B013B062B34D83F09474537D3E0
:101900002D04069B1B031D432368002B36DB284B4D
:101910009C4244D00C2201239340264A1360264A5D
:101920001360264A1268190091430A1EF9D12660F5
:10193000A060234BE31821321A602268002AFCDAE7
:10194000E56008221A6080BCB846F0BD1D4B1E4AF7
:101950001E48112102F024FA1D4B1B4A1B48192175
:1019600002F01EFA1B4B184A18481C2102F018FA04
:10197000194B154A1548232102F012FA22683F2319
:101980001340B342C3D1A3681B051B0D8342BED1D4
:10199000E368EE22D2021340AB42B8D1D3E70D2266
:1019A000B9E7C046001BB70080E84BD380F8A932E6
:1019B00000C0024000E0004000F0004008C00040CD
:1019C000043000002C7200109C7700107C72001014
:1019D000B8720010D47200102073001080239B0096
:1019E0000B43014AD36270470080054010B50100E7
:1019F00018231B8814221088984710BD10B50100C9
:101A000018231B8816221088984710BDF0B5C646CB
:101A100000B507000E0000250123984600E00135BF
:101A2000B5420AD2AC003C192068FFF7DFFF206006
:101A30000028F4D100239846F1E7404680BCB84620
:101A4000F0BD0000064BAA2212011A602F22DA60B4
:101A5000044B054A1A60024B5B68002BFBDA7047A7
:101A6000004002400060024000B0FA0010B50400DF
:101A700001E008CC9847024B9C42FAD310BDC04607
:101A80002C6F00107047000010B50248FFF7EEFF02
:101A900010BDC046F06E0010054B064A1A60064B9A
:101AA000064A1A60064B1A68044B9343FAD17047F2
:101AB00000E00040BFCDFBFE00F00040FE7F3C0098
:101AC00008C00040044BDB6C002B03D1034B802289
:101AD000D2021A607047C046000011504C201150CD
:101AE000044B054A1A60054B1B68DB43DB01FAD146
:101AF0007047C04600F00040FFFFFF0108C00040F3
:101B0000034B40229A675A671A67DA667047C046E5
:101B100000F0014010B5FFF763F910BD70B5044D3A
:101B2000A968044CC022200001F026F8AC6070BD0A
:101B300000ED00E00000002070B50420FFF7B6FEC5
:101B4000064900F0A3F805000024002C00DD70BD5C
:101B5000E0B22900FFF742FF0134F6E740420F00F0
:101B600030B583B0274B00229A67FFF76BFF264BF7
:101B700001221A60234B5B6C012BFBD1234B032208
:101B80001A60204B9B6B012BFBD101330093043374
:101B90001F4A01211F48FFF78FFE052300931E4AAD
:101BA00001211E48FFF788FE1D4B00220221042060
:101BB000FFF772FE1B4D2B00002201210520FFF7CD
:101BC0006BFE194C2300002200210720FFF764FE62
:101BD0002300002200210820FFF75EFE8023DB00A7
:101BE00000932300002200210920FFF741FE2B0073
:101BF000002200210620FFF74FFEFFF79DFF03B0F4
:101C000030BDC046008000403CB0004030B00040D5
:101C1000002F685900800240008C864700C00240B7
:101C2000001BB70040597307006CDC020148042117
:101C3000014B1847101200200D1A0010124A936F22
:101C40009B0815D29066D166002905D0FFE7FFE713
:101C5000FFE7516F106F704704B580210906C21766
:101C60005140002800D0C84305F0FAF8002104BD17
:101C7000F0B5146E556E576F166FFFF7E3FF1466DD
:101C8000556657671667F0BD000000D0114A936F84
:101C90009B0813D210665166002905D0FFE7FFE7C5
:101CA000FFE7516F106F704704B5002801D0002086
:101CB000C04305F0D5F8002104BDC046F0B5146E50
:101CC000556E576F166FFFF7E5FF14665566576739
:101CD0001667F0BD000000D094464A4A926F920801
:101CE000624601D228E0C046F0B5464E346E756EAD
:101CF000776F366F00F020F89446424A14665566B6
:101D0000576716676246F0BD94463E4A926F920846
:101D1000624601D254E0C046F0B53A4E346E756E5C
:101D2000776F366F00F04CF89446364A1466556665
:101D3000576716676246F0BD002B24DB11D00029DF
:101D40003EDA00B5C943404200D1013100F038F815
:101D5000C943404200D10131DB43524200D101333B
:101D600000BD002AEBD1002801D1002905D00020B8
:101D7000C90FC90701D1C043410800B505F048F8B3
:101D80000022002300BD00B500290ADBDB435242DC
:101D900000D1013300F014F8C943404200D10131B1
:101DA00000BDC943404200D10131DB43524200D162
:101DB000013300F005F8DB43524200D1013300BD8E
:101DC000002923D1002B18D1002A0CD0BC460D4F7E
:101DD00038667A6600210023FFE7FFE7FFE77A6FA6
:101DE000386F67467047002801D00748010000B5EA
:101DF00005F00EF80022002300BD02000B000020B9
:101E000000217047000000D0FFFFFFFF002B00D033
:101E1000BFE0130C28D1002AE7D080B4114F3966F7
:101E20007A66FFE7FFE730B4040C7B6F396F1B0461
:101E300023433B667A66FFE7FFE7FFE7C04684B2CD
:101E40007B6F3D6F1B0423433B667A66FFE7FFE72A
:101E5000C04600232C042D0C7A6F386F001969419D
:101E6000B0BC7047000000D0F0B594460025140EB9
:101E700001D112020835140F01D112010435940F5B
:101E800001D192000235D40F01D152000135D40B9B
:101E90000134254F7C66254C3C660E0C93B2FFE75F
:101EA000FFE7FFE73C6F6643360C7703BE4673439C
:101EB000DF0B5B04C01AB941130C7343DB18C91A5A
:101EC000CE086643360CB64493B273431F0F1B0112
:101ED000C01AB941130C73431F0B1B05C01AB9413B
:101EE000860D8F023E436643360C092D24DB520AD1
:101EF0007243801A7703460A6643360C16235B1B2F
:101F0000DE40DF40BF1964466643821B70460435DD
:101F100006330100D940A840C01900D30131A242C4
:101F200006D20023F0BD0000000000D0FFFFFFFF3D
:101F3000121B0130F3D3F1E709277F1BFE406446F3
:101F4000A2B27243801A00D20139220C7243130CE0
:101F50001204821A99410B007046043513370100B0
:101F6000F940A840801900D30131002B02D1A242D0
:101F70000AD2F0BD013000D30131121BFAD2013B6D
:101F8000F8D1A24200D2F0BD013000D30131121BC2
:101F9000F7E7F0B51C0C00D080E00CB400251C0A5B
:101FA00004D11B02160E3343120208351C0B04D158
:101FB0001B01160F3343120104359C0B04D19B0007
:101FC000960F334392000235DC0B02D192185B412D
:101FD00001351C00971864410134464F7C66464C1D
:101FE0003C660E0CFFE7FFE7FFE7C0463C6F664329
:101FF000360C7703BE4697B27743C01B00D2013937
:10200000C01B00D201399FB27743C91BC91B170CF3
:1020100077437E04FF0B801BB941CE086643360C24
:102020000C2D33DBB644120B1F053A431B0B97B242
:102030007743C01B00D201399FB27743C91B170CED
:1020400077433E043F0C801BB941860D8F023E430F
:10205000664329277F1BFE400C3D7746AF40BF19E2
:1020600030BCA2B2ABB272437343801A9941220CC6
:102070007243130C1204801A994102000B000137BD
:10208000001BA941F9D2781E0021F0BD0C277F1B4F
:10209000FE4077467F0BAF40FF19E0E700245D1C50
:1020A00007D0144F7D663966FFE7FFE7FFE7FFE7DC
:1020B0003C6F95B29EB265436643401BB141150C1F
:1020C0001E0C6543664336042F0C3E432D04401B13
:1020D000B141994204D202000B0020000021F0BD62
:1020E00001D19042F7D3801A994101349942F2D339
:1020F000F6E70000000000D0FFFFFFFF484041402E
:10210000484018B41B4B5B68FC46019308BD04DFD4
:10211000D723001018B4174B1B68FC46019308BD69
:1021200000DFE12300109446134A926F920809D20F
:10213000624618B40F4BDB68FC46019308BD0CDF08
:10214000992600100C4AF0B5146E556E576F166F35
:102150006246FFF7EEFF084A146655665767166732
:10216000F0BD18B4034B9B68FC46019308BD08DF23
:102170003D250010A0220020000000D0FFB55040F7
:102180004240504059404B40594000E0FFB5154F88
:102190004C00640D03D0BC4204D10C0314D80020C1
:1021A000090D09055C00640D03D0BC4204D11C0379
:1021B0000AD800221B0D1B0501264B4009D44B40B9
:1021C00003D58B4200D18242FFBD9942FCD190429F
:1021D000FFBD0B43DB1803431343F5D0C943491834
:1021E000FFBD0000FF07000000B5FFF7CFFF8041F3
:1021F00000BDC04600B5FFF7C9FF01D9002000BDF2
:10220000012000BD00B5FFF7B9FF01D9002000BDD6
:10221000012000BD00B5FFF7B1FF804100BD0120E6
:1022200040054A00121804D85A00121801D800209C
:1022300070470120704700000021002805D1704739
:10224000C1174840401AFAD0C90713B5064B1B689E
:1022500098470CBC441CA2401005120B0349091BF3
:1022600009051943114310BDA02300201F040000DD
:1022700010B54C00620D8023D218DB00D21A5B052A
:102280007E2A10DD9E3A13DACC1709034908194358
:102290005242D140640001341532202A05DAD04080
:1022A0000843604310BD002010BD0846604310BDC8
:1022B000C80FC018013810BD18B4044B5B6AFC4647
:1022C000019308BD24DF492800100000A02200204F
:1022D00070B513231C78012C12D0012C12DC214B79
:1022E000214A93642148FFF781FB214B186070BDA0
:1022F0001C491D4A9800815001331F2BF8D9ECE787
:102300000023FAE71B48FFF779FB05001A48FFF79F
:1023100075FB023803789B007F2B09DD1248802271
:10232000290000F029FC022C08D0022CDADCD6E7C8
:10233000124B134A1348332101F032FD124B1A8815
:10234000B5231B029A4209D1104B1A88104B9A42AE
:1023500004D1104B1A88104B9A42E6D00020FEF7A9
:10236000C1FCC0469D230010A02200204C33000079
:10237000A023002053440000534600003C7300108B
:10238000A87700108073001054380000D83800007F
:10239000494600009C3800005946000007B56046D9
:1023A000002800D100BE01880A0A0230DF2AFAD1D3
:1023B000C9B2820804D3028840880004104300E0B8
:1023C0000068024A5050039007BD0000A022002080
:1023D0000FB403BC0CBCF0B50124E407634000E07B
:1023E000F0B50C0DCF0F661E3605891B640503D3AF
:1023F000C943404200D30131640D03D0661CF60A84
:1024000007D0E41B00207F00791C89078912803CDB
:1024100024031D0DDF0F6E1E36059B1B6D0503D3B8
:10242000DB43524200D301336D0D03D06E1CF60A1C
:1024300007D0ED1B00227F007B1C9B079B12803D79
:102440002D032F1B661B58D4A446202E46DA2037B6
:102450001400BC401D00BD40F24033412A438018A7
:102460005941CB0F05D0C943C043002264425041BB
:10247000514162464D0D28D10D0D07D100281FD0C6
:10248000241940414941013A0D0DF9D0640006D3A9
:10249000013000D30131002C01D140084000013A45
:1024A0000BD4941CE40A04D112051144DB0719442F
:1024B000F0BDD907204B194300E0D9070020F0BD3B
:1024C0000029DDD1002CDBD1F0BD0132C607400868
:1024D000CD0728434908002EE1D0D9E73C2E29DA60
:1024E000203E40371400BC4000D00124F240144389
:1024F0001A00BB401C43D317ACE7AC46202F08DAC8
:1025000020360400B4400D00B540F840394128435E
:10251000A5E73C2F0CDA203F40360400B44000D041
:102520000124F84004430800B1400C43C117EAE716
:1025300010001900002494E70000F07FF0B50C0DA6
:10254000661E3605891BE60A6405640D02D0651C0B
:10255000ED0A04D0002001210905803C2403A44693
:102560001C0D671E3F05DB1BE70A6405640D02D0E6
:10257000651CED0A04D0002201231B05803C2403C6
:102580007740644497B484B296B27443070C7E4398
:10259000150C6F4380B26843361802D30120000443
:1025A0003F183004350C00197D41844688B29AB238
:1025B00050430C0C62431F0C7C438EB27E43921935
:1025C00002D301263604A4191604170C36186741E5
:1025D00001BC81B29AB25143040C62431B0C5C43B0
:1025E00080B25843121802D30120000424181004AA
:1025F000130C401863412D185E410020474106BC72
:1026000088B293B258430C0C6343120C544389B202
:1026100051435B1802D301210904641819041A0CF0
:10262000091862416D1856410020474118BCF90253
:10263000720D1143F0026A0D1043ED020A0D03D131
:102640006D1940414941013B124E9B1B7600B3423C
:102650000ED26D0007D30130002671416646354326
:1026600001D1400840001B05C918E4072144F0BD12
:102670000BDA013306D1013004D101314F0D01D005
:102680004908F2E7E1070020F0BD013631050020DE
:10269000EBE70000FF030000F0B51C0D671E3F05CF
:1026A000DB1BE70A6405640D02D0661CF60A04D041
:1026B000002201231B05803C2403D0252D06002683
:1026C000F6432E661E096E66CE0FF619B446490013
:1026D0004F0D02D07E1CF60A03D000200021403F9F
:1026E0003F033E1BB600B444013F7F05C91B4908A8
:1026F0002E6F013676089C02950D25437543ED1328
:102700007543AD1301356D10F603761B0CB4CC0286
:10271000450D2C43A2B2B3B25A43270C7B43350C70
:102720006F43A4B26C431B1902D3012424043F1944
:102730001C041D0CA4187D4124196D41009A91B20E
:10274000ACB26143170C7C432B0C5F4392B25A43EB
:10275000A41802D301221204BF182204230C521819
:102760007B41019C6C431B19520ED9010A43440161
:10277000A01A81B2B2B2514303145A43360C7343C8
:1027800087B27743D617D21900277E4136049B19AA
:102790001704160C7F185E417316ED18F30100261E
:1027A00080337541A90F06D16400690AE8055B0A08
:1027B000184309D22FE00422944480337541A90ABA
:1027C000A8059B0A184326D3404149412404009A96
:1027D000019B0D005543641B4343E41A95B286B236
:1027E0007543170C7E43030C5F4392B25A43B618ED
:1027F00002D301221204BF183204330C52197B4158
:1028000052429C41002C02D4002201305141400828
:10281000CA071043490802B06246D7079210084B16
:10282000D218084B9A4203D212058918C919F0BD73
:102830000020002A01DC3900F0BD01331905F5E75D
:10284000FD030000FE070000002200B5203200F06A
:1028500004F8080000BD000000220B150AD410B5D2
:10286000944600F031F81414013400DA0021CB173B
:10287000144C20470020002170476244343A0CD4A5
:102880000C2A07DA04009140904052422032D44092
:10289000214310BDD843D94310BD203207D40C4684
:1028A0009440524220321141D040204310BD0800D4
:1028B000C917203203D452422032104110BD1800F3
:1028C000190010BD7B2800100A0DCC0F531E1B05EC
:1028D000C91A520503D3C943404200D30131520DF6
:1028E00003D0531CDB0A07D0121B00206400611CBC
:1028F00089078912803A1203014BD21A70470000EF
:10290000FF03000051434343C9188C46110C83B2A6
:102910004B4310B4040C614392B280B25043624303
:102920001C041B0C001910BC59411304120CC018D4
:1029300051416144704700004840414048400023F5
:102940009C46114B5B68184700239C460E4B1B6846
:1029500018470E4A936F9B0804D200239C460A4BEB
:10296000DB681847F0B5146E556E576F166FFFF79A
:10297000F4FF064A1466556657671667F0BD0023D4
:102980009C46014B9B681847A4230020000000D000
:10299000491A002808D1084670470000C10FC9072E
:1029A00000D54042002817D0F44603B40B4B1B68F7
:1029B000984706BC81409E384042803107D20B06C2
:1029C00007D04900490AC005104308436047013059
:1029D000F8E7490A8902F5E770470000A0230020C4
:1029E00000239C46014B5B6A18470000A42300208B
:1029F00070B513231E782A48FFF700F80500012E52
:102A000011D0012E09DDAB1E1B789B007F2B40DD12
:102A100024488022290000F0AFF82348FEF7E6FFA3
:102A2000224B186070BD1F485422290000F0A4F802
:102A30001F4B1A881F4B9A421CD1A7239B011A884F
:102A40001D4B9A4216D11D4B1A881D4B9A4211D12B
:102A50001C4B1A8894239B019A420BD11A4B1A885B
:102A60001A4B9A4206D11A4B1A681A4B9A4201D154
:102A7000152307E01848FEF735F9184C094A990064
:102A80008C5001331F2BF8D9144B064A1362D361C3
:102A9000B7E7134B134A1448422101F081F9C046AD
:102AA00053460000A42300204C330000A023002044
:102AB000EE290000C40F0000C20D0000962B00009C
:102AC000C0B50000182B0000CC2A000010B5000093
:102AD000FC2C000051ED87649C6F0010ED2A001063
:102AE000D0730010BC7700100474001007B5604666
:102AF000002800D100BE01880A0A0230DF2AFAD17C
:102B0000C9B2820804D3028840880004104300E060
:102B10000068024A5050039007BD0000A423002023
:102B200010B5002804D04018034B984200D810BDBF
:102B30000248FEF7D7F8C046000004205074001089
:102B400070B5050003F0DAFE04002900FFF7E8FF86
:102B5000200070BD10B503F0DBFE10BD014804215C
:102B6000014B1847201200200D1A0010014B1B6862
:102B70001847000020120020014B5B681847000036
:102B80002012002010B5FFF7DBFF10BD10B5FFF7D6
:102B9000E1FF10BD10B5FFF7DDFF10BD704710B5A8
:102BA000002802D00B684968984710BD010000203A
:102BB00007E083001B185B00501C08601078C018E9
:102BC00030380A681378303BDBB2092BF1D97047F3
:102BD000F0B5DE4657464E464546E0B583B09346CF
:102BE0001F000C9B9A460D9C0E9B99460F9B9B07C2
:102BF00003D0B8460F00060022E00192A3468846A3
:102C00004E46B9460700B44207D2551C4B464146D2
:102C10002020B84701342A00F5E73D004F465C46C6
:102C2000019B9B46B1464646B84637002E0007E05A
:102C3000013C551C5346185D43463900B0472A00F5
:102C4000002CF5D135003E0047460F9B9B0707D46B
:102C5000100003B0F0BCBB46B246A946A046F0BD8A
:102C6000B0464E46B9462F005D46531BB342EFD2E5
:102C7000541C4B4641462020B8472200F5E7F0B5EA
:102C8000CE46474680B585B0944698460C9D0D9C2F
:102C90000EAB1B789946109A119B129EB7071CD455
:102CA000002B0CD0F7070AD54F46002F02D10C3766
:102CB000374204D0013B02E030272F5501349442C3
:102CC00001D21F2CF8D9F70707D59C4205D21F2C3B
:102CD00003D830272F550134F5E7F70612D57705CD
:102CE00005D4002C03D0944221D09C421FD00F9ACF
:102CF000102A32D00F9A022A37D01F2C0AD830223D
:102D00002A5501341F2C05D84A46002A33D02D22DB
:102D10002A55013403960293019400954346624676
:102D2000FFF756FF05B0C0BCB946B046F0BD621E05
:102D3000012C10D00F9F102F0BD014000F9A102AC7
:102D4000D8D1B206D6D51F2CD4D858222A55013452
:102D5000D3E7023CCBE71400C9E7B206EED41F2C40
:102D6000ECD878222A550134C7E71F2CD2D860321C
:102D70002A550134C1E7720703D52B222A550134A5
:102D8000C8E73207C6D520222A550134C2E7F0B57C
:102D9000DE4657464E464546E0B593B081468A46E4
:102DA000089209931CAB10CB1B789B461E9D219B60
:102DB0009846002C03D1102342469A439046802324
:102DC000DB0046461E4042461A4212D0002C22D05A
:102DD00000260EE03033D9B2771C0AAB9955290092
:102DE0002000FEF753FFAC4216D31F2F14D83E002D
:102DF000040029002000FEF749FFCBB2092BE9D9D6
:102E00004246920605D54121C918C9B20A39C9B24C
:102E1000E2E76121F8E7270043460693209B0593EC
:102E20001F9B049303955B46029301970AAB0093A3
:102E3000099B089A51464846FFF721FF13B0F0BCA2
:102E4000BB46B246A946A046F0BDF0B5DE465746A1
:102E50004E464546E0B597B00A900B910C929A46C3
:102E6000209B9946219F22AA13789B46249B099375
:102E7000259C289B98464A463A4302D110329343F8
:102E800098468022D20045461540434613420AD058
:102E90004A463A4341D000252E0053460D934D46F5
:102EA000099B9A461BE02E0053460D934D46099B05
:102EB0009A4614E03033DAB2731C99460EAB9A5539
:102EC0005246230028003900FEF71EFFBC4226D8D8
:102ED00019D04B461F2B1CD84E4605000F005246FA
:102EE000230028003900FEF70FFFD3B2092BE1D9E8
:102EF0004246920605D54122D218D2B20A3AD2B23F
:102F0000DAE76122F8E7AA45E3D94E460D9B9A46D7
:102F100008E04E460D9B9A4604E0002602E04E462D
:102F20000D9B9A4643460693279B0593269B049345
:102F3000099B03935B46029301960EAB00935346A5
:102F40000C9A0B990A98FFF79AFE17B0F0BCBB4693
:102F5000B246A946A046F0BDF0B5DE4657464E46FD
:102F60004546E0B591B0804689460C929A461A9C37
:102F70001B9D22002B0020002900FFF750F900289C
:102F800000D0ECE001225242D44B20002900FFF790
:102F900041F9002800D0E2E001225242D04B20004B
:102FA0002900FFF721F9002800D0D8E000220023F3
:102FB00020002900FFF718F9002800D0E4E006946B
:102FC00007958023DB001E9A1A400D921E9A1A4222
:102FD00001D106231C930698079902000B00089262
:102FE000099303000A00024300D1D9E0080D40050F
:102FF000400DBC4EB44660440A03120B1E00BA4B8F
:1030000013431F00FFF71CF9B84AB94BFFF7A9F8A3
:10301000B84AB94BFFF77EF8089009910022B74BE8
:1030200030003900FFF76DF8B54AB64BFFF799F855
:1030300002000B0008980999FFF76CF8FFF718F9E0
:103040008346FFF7FDF806000F00AF4AAF4BFFF7CE
:1030500088F80022AE4BFFF75DF8FFF709F90890FA
:10306000AC4AAD4B30003900FFF77BF806000F008B
:103070000898FFF7E5F8A94AA94BFFF772F8020094
:103080000B0030003900FFF73CF806000F0002008B
:103090000B00FFF766F80A900B91089BA14A944633
:1030A000634400210022089109921B050993002323
:1030B000089332003B0030003900FFF72BF80E90E8
:1030C0000F9132003B0000208021C905FFF719F85D
:1030D00006000F000022944B0A980B99FFF723F883
:1030E0000022924BFFF716F802000B000A980B998A
:1030F000FFF719F800228E4BFFF70CF802000B00C7
:103100000A980B99FFF70FF802000B003000390006
:10311000FFF700F802000B000E980F99FFF703F875
:103120000022714BFEF7F6FF089A099BFFF719F88A
:1031300006000F0008960997069A079BFFF76AF8A2
:1031400000282FD001235B429C46E3440022774BAA
:1031500030003900FEF7E7FF0890099122E01E9B3E
:1031600004931D9B03931C9B02930094019553466B
:103170000C9A4946404600F0FFF811B0F0BCBB463F
:10318000B246A946A046F0BD002100220691079252
:10319000069480231B069C46AC446346079310E7C5
:1031A00000239B465B466333C62B20D804261E9B18
:1031B0001B0528D5089A099B190011430FD05D4AB9
:1031C0005D4B06980799FFF71DF800287AD000227A
:1031D0005A4B06980799FFF707F8002872D01C9BF6
:1031E0005B4506DD5A469B1A013B1C9303E005260E
:1031F000DDE700231C938023DB001E9A1A431E92F6
:10320000002600239B461D9B9E4265D29F1B0223E6
:103210001E9A1A400A921E9A134202D0002E00D023
:1032200000275B46002B07D0089A099B0698079950
:10323000FEF779FF06900791002200232000290065
:10324000FEF7D2FF002800D07CE03D4B1E9A1340D1
:10325000049303971C9B0293069B079C0093019485
:1032600053460C9A4946404600F086F8002E00D19D
:1032700083E71E9B9B0671D54525441C53460200DF
:1032800049462800C0475A46D317D2185A4005234A
:103290000593013E0496002303930A3302935B4691
:1032A000DB0F019300925346220049464046FFF748
:1032B0006EFD0A9B002B00D15FE7020047460C9E83
:1032C0001D9D53E01C9B002B9DD00D9B002B9AD085
:1032D0001C9B013B1C9396E7002798E7FFFFEF7FBD
:1032E000FFFFEFFF01FCFFFF0000F03FFB799F5065
:1032F0001344D33FB3C8608B288AC63F0000F83F11
:1033000061436F63A787D23F71A379094F930A4046
:103310000000E03F1655B5BBB16B0240EF39FAFE35
:10332000422EE63FFF03000000002C400000244036
:10333000000018402D431CEBE2361A3F80842E41DA
:10334000FFF7FFFF069C079D220029008020000652
:10335000844661440B000692079376E765258CE767
:10336000541C534649462020B8472200931BAB42C9
:10337000F6D3100001E7C046F0B5DE4657464E468C
:103380004546E0B595B00690079193469946209F33
:103390001E9A1F9B10001900FEF741FF002831D133
:1033A00001225242BF4B1E981F99FEF71DFF0028B5
:1033B00037D101225242BC4B1E981F99FEF72AFFBB
:1033C00000283DD10022B94B1E981F99FEF722FF1D
:1033D000002850D10022B64B1E981F99FEF704FF1B
:1033E000002848D1002200231E981F99FEF7FCFEFA
:1033F000002850D100239846229B5B0500D4B6E0FC
:10340000002458E0229B0393219B02930323019302
:10341000A84B00934B465A4607990698FFF7D8FBEE
:103420000EE1229B0393219B029304230193A24B61
:1034300000934B465A4607990698FFF7C9FBFFE0F1
:103440000423229A1A4022990B4210D09B4B002A47
:103450000FD00422229903912199029101920093A5
:103460004B465A4607990698FFF7B2FBE8E0944BA3
:10347000EDE70322EEE7229B0493219B039302973F
:103480001E9B1F9C009301944B465A460799069831
:10349000FFF762FDD4E01E9A1F9B00200021FEF77B
:1034A00030FE1E901F9101239846A5E70CAB3022F9
:1034B0001A55013F01341F2C01D8092FF6D81E9848
:1034C0001F99FEF7D5FE0500FEF7BAFE02000B00BD
:1034D0001E981F99FEF715FE7A4BFA009B181A6882
:1034E0005B680A920B93FEF73CFE08900991FEF789
:1034F000E3FE0600FEF7A0FE02000B000898099903
:10350000FEF7FFFD0890099100226F4BFEF782FE47
:1035100000282ED001363000FEF78EFE02000B0090
:103520000A980B99FEF766FE002801D001350026A7
:10353000002F2CD12800FEF783FE02000B001E98FE
:103540001F99FEF7DEFD06000F0000225E4BFEF71E
:103550004BFE002846D100225B4B30003900FEF7BD
:1035600059FE00283ED1EB073CD501353AE006274D
:1035700046E70022544B08980999FEF735FE0028CB
:10358000D6D1002E01D0F307D2D50136D0E7AA4616
:103590001F2C11D8013F0A213000FEF777FB651C74
:1035A00030310CAB19550A213000FEF76FFB092EA4
:1035B0000ED906002C00EBE755461F2C0CD87B1EBD
:1035C000002F09D00CAA302111551F000134F4E757
:1035D0002B0055461C00F0E71F2C03D80CAB2E2205
:1035E0001A5501341F2C10D80A212800FEF726FB9B
:1035F000661C30310CAB19550A212800FEF71EFB62
:10360000051E01D03400EDE734000323229A134055
:10361000012B1CD01F2C06D84346002B32D00CABFC
:103620002D221A550134229B0393219B029301946E
:103630000CAB00934B465A4607990698FFF7C8FA19
:1036400015B0F0BCBB46B246A946A046F0BD219BD2
:10365000002B13D04346002B02D10C3313420FD062
:10366000219B013B2193190003E00CAB30221A553A
:1036700001348C42CED21F2CF7D9CBE72199F8E741
:103680002199F6E7229B5B0704D50CAB2B221A5538
:103690000134C8E7229B1B07C5D50CAB20221A5565
:1036A0000134C0E7FFFFEFFFFFFFEF7F65CDCD41A6
:1036B00065CDCDC1A4740010A874001098740010DA
:1036C000A0740010C07900100000E03FF0B5DE46A5
:1036D00057464E464546E0B593B0824688469346E7
:1036E0001193002900D10DE300255646119B18784F
:1036F000002800D109E3252809D06C1C5B462A006C
:103700004146B047119B013311932500EEE7013389
:103710001193002720E001231F430132119201245D
:1037200018E002231F4301321192012412E0042306
:103730001F430132119201240CE008231F43013280
:103740001192012406E010231F430132119201243B
:1037500000E00024002C09D0119A1378203BD9B244
:103760001029F6D88B00C849CB589F46119B1A7870
:103770001300303BDBB2092B10D92A2A13D00B944B
:10378000119B1A782E2A1ED0119A1378683BD9B251
:10379000122959D88B00BD49CB589F4611A8FFF775
:1037A00005FA0B90ECE71C9B1A1D1C921B68002B62
:1037B00004DB0B93119B01331193E1E702221743C2
:1037C0005B420B93F6E78022D20017435A1C1192FA
:1037D0005A781300303BDBB2092B0BD92A2AD3D1FC
:1037E0001C9B1A1D1C921C68002C08DB119B0133CA
:1037F0001193C9E711A8FFF7D9F90400C4E7002421
:10380000F4E780235B003B43511C119151786C29F4
:1038100001D01F0018E0C0239B001F430232119209
:1038200012E080233B43511C11915178682901D04B
:103830001F0009E0C0231F430232119204E08023DD
:103840005B001F4301321192119B1878672818D82A
:10385000252800D24CE20300253BDAB2422A00D9E7
:1038600046E293008A4AD3589F4680239B001F4319
:1038700001321192E8E780235B001F43013211926D
:10388000E2E7782800D933E2692800D230E202006A
:10389000693AD2B2012393407E4A134211D11A06EB
:1038A00000D500E25B0500D422E21C9B1A1D1C928D
:1038B0001B689A46002C00D0B2E1012252425346C6
:1038C0008EE16F280ED006D858283DD0622804D14A
:1038D00002239C4608E0782839D010239F43063BFA
:1038E0009C4601E008239C46582833D0692803D021
:1038F000642801D00C2297437A0501D50122974311
:1039000069282AD0642828D0BA0500D59FE0FA0596
:1039100000D5C1E07A0600D4D3E01C9A111D1C9199
:103920001168FF220A4005970B9B0493039463469A
:1039300002930023019300925B462A004146300027
:10394000FFF725FA050027E010239C46CCE710235B
:103950009C46C9E720221743C8E7BA0520D4FA05D8
:1039600050D47A0666D51C9A111D1C911168FF224D
:103970000A40D0171118414005970B9B04930394FC
:1039800063460293D20F019200915B462A004146A2
:103990003000FFF7FCF90500119B01331193A5E6F8
:1039A0001C9A073207218A43110008311C911168C3
:1039B00053689946DB170C930D930C9A0D9B1000DE
:1039C00048400E904A4653400F930E980F990C9A18
:1039D0000D9B801A99410E900F9108970B9B0793AE
:1039E000069463460493002305934B46DA0F029234
:1039F000009001915B462A0041463000FFF725FA0E
:103A00000500C9E71C9A111D1C911268D0171118E6
:103A1000414005970B9B0493039463460293D20F96
:103A2000019200915B462A0041463000FFF7AFF952
:103A30000500B1E73A0605D51C9A111D1C9100231B
:103A4000D25E96E71C9A111D1C91126891E71C9A90
:103A5000073207218A43110008311C9108970B9BFC
:103A600007930694634604930023059302935368D7
:103A70001268009201935B462A0041463000FFF72E
:103A8000E4F9050088E7C046247800106878001043
:103A9000B4780010419000001C9A111D1C910597EC
:103AA0000B9B0493039463460293002301931368D2
:103AB00000935B462A0041463000FFF768F9050095
:103AC0006AE73A0606D51C9A111D1C911268120469
:103AD000120C28E71C9A111D1C91126823E7462836
:103AE00019D01C9B0733072293431A0008321C92FB
:103AF00004970B9A039202941A685B6800920193F0
:103B00005B462A0041463000FFF736FC0500119B5A
:103B100001331193EAE520231F43E2E7672801D030
:103B2000472802D180231B011F43452801D0472885
:103B300001D120231F431C9B0733072293431A0004
:103B400008321C9204970B9A039202941A685B68DD
:103B5000009201935B462A0041463000FFF7FCF9D2
:103B60000500119B01331193C0E502231A003A406E
:103B700091463B421DD001241C9B1A1D1C926F1CB8
:103B800018785B462A004146B0474B46002B14D1BB
:103B9000119B013311933D00A8E5571C5B4641463C
:103BA0002020B04723003A005C1C9D42F5D8150048
:103BB000E2E701232A000B9DF6E73A00B1460B9E8F
:103BC00006E0571C5B4641462020C8472C003A00BF
:103BD000651CA642F5D817004E46D9E701330A0006
:103BE0001978002902D0511E002AF7D152469B1A9B
:103BF0008022D200390011408946174202D0A342E8
:103C000000D9230002221100394010913A4209D014
:103C10002A00250057469A4633004E46994621E031
:103C200022004CE62A004546A04606E0541C5B46AE
:103C300029002020B0473B0022005F1C0B999942CD
:103C4000F4D84446A8463B00250057469A46330020
:103C50004E46994606E01D000137541C5B4641461E
:103C6000C84722003878002804D0002EF4D06B1EFC
:103C7000002DF0D1150053464E46109A002A03D16C
:103C8000119B0133119331E50B9F2A0006E0551C6F
:103C90005B4641462020B04723002A005C1C9F421F
:103CA000F5D81500ECE721233B431C9A111D1C910C
:103CB00012680593082304930394083302930023A6
:103CC000019300925B462A0041463000FFF75FF8FF
:103CD0000500119B0133119308E56C1C5B462A001B
:103CE00041462520B047119B013311932500FDE487
:103CF0006C1C5B462A004146B047119B013311936F
:103D00002500F3E40A4B9A46EEE4B2465D450DD336
:103D10005B465A1E5B4641460020D047280013B040
:103D2000F0BCBB46B246A946A046F0BD2A00F1E76A
:103D30009D2B001000B585B002900391012104482D
:103D4000009313004A4202A9FFF7C0FC05B000BD72
:103D50009F2B001000BEFDE703000A4A1268002AEC
:103D600008D0084A1068C318074A9A4206D3054A81
:103D700013607047034A05491160F2E70120404291
:103D8000F7E7C0468C22002000000420AC2400206D
:103D90000020704701204042704710B5FFF7DAFF5E
:103DA00030B583B00D001900002A0BD0074B084C2A
:103DB000019200932B000200200000F05FF9012027
:103DC000FFF7C8FF034B1A00F1E7C046B0740010BC
:103DD000C07400109C6F001010B5EFF30583002B2A
:103DE00000D000BEFDF750FE034C01E008CC984720
:103DF000024B9C42FAD310BD2C6F0010406F001094
:103E000010B50300080011001B68984710BD0000A2
:103E1000F8B507000D001600437D002B02D00024EA
:103E200000200CE003681100280098472DE03B7D3E
:103E300010E03B68154802219847601C0134B442E9
:103E400014DA002CF3DD2B19013B1B780D3B5A4291
:103E50005341DBB22A5D0A2AF0D1002BEED1A042F9
:103E6000E7DA3B68211A28189847E2E7B04203DAFC
:103E70003B68311A28189847002E06DDAD19013D20
:103E80002B780D3B5A4253413B75F8BD107A001018
:103E900070B505000368002B16D00C4B1C6805E0BC
:103EA000290004C92000FFF7B3FF2469002C09D0C2
:103EB0002368002BF9D0064B1B68002BF0D0A342DF
:103EC000F3D1EDE700232B6070BDC04684220020B3
:103ED0008822002070B505000C000B68802B05D0EF
:103EE00023685A1C2260E418257170BD0800FFF792
:103EF000CFFFF5E710B5FDF747FC074A002312187E
:103F00004B41002B03DB054802F0CAFF10BD012224
:103F10005242034BF7E7C04640420F00941700207F
:103F2000FFFFFF7F10B5024802F06AFF10BDC046D8
:103F300094170020F0B5CE46474680B583B0060002
:103F40000D0090461C00FFF7D5FF81466B1C05D085
:103F5000002C08D0184F194B1C6807E0300002F005
:103F600049FD0500F4E7164FF5E72469002C17D04A
:103F70002368002BF9D0134B1B68002B01D0A34200
:103F8000F3D12A0031002000B8474346002BECD083
:103F90006B46D91D0A230B7001222000B847E4E7C5
:103FA0004B46002B05D1280003B0C0BCB946B04633
:103FB000F0BDFFF7B7FFF6E7113E001084220020A6
:103FC000013E001088220020094A01E010331A0047
:103FD0001368002B08D08342F8D1002907D1036968
:103FE00013600023036102E0002900D010607047D5
:103FF0008422002010B5064B1C6801E09847246914
:10400000002C03D06368002BF8D1F8E710BDC04640
:104010008422002010B500F04BF8012010BD70B5CF
:10402000050002F0E7FC0400012301220100280042
:10403000FFF780FFFFF7DEFF200070BD70B5A2B074
:1040400004000E00FFF756FF0500002301930A4805
:104050003300220001A9FFF76DFE040001A8FFF75D
:1040600017FFFFF7C7FF002D02D1200022B070BD5F
:10407000FFF758FFF9E7C046D53E00100FB400B572
:1040800083B004A901C90191FFF7D8FF03B008BCB0
:1040900004B0184710B50A000100002000F012F922
:1040A00010BD10B50A000100002000F053F910BD4A
:1040B00010B500F069F903480121FFF785FF024BB5
:1040C0001B7810BD30120020548000100369C268B4
:1040D000934204D881688A1AD01801387047981A18
:1040E0000138FBE7F8B5CE46474680B504000E0020
:1040F0001700C568836899465B1B9846934209D9A7
:1041000040684019FEF738FDED19E560C0BCB946BE
:10411000B046F8BD406840191A00FEF72DFD4B4629
:10412000ED1AED196068310041442A00FEF724FDC4
:10413000E560EBE7F8B5CE46474680B50600884611
:104140001700C4680023994614E0B2681B1BD218FC
:10415000013A14E0706800192A004146FEF70CFD90
:10416000A944A8447F1B6419B368A34211D0F4602A
:10417000002F10D033699C42E7D21A1B013AB36872
:104180001B1B934200D913003D009F42E2D91D0042
:10419000E0E70024EBE74846C0BCB946B046F8BDAE
:1041A00010B5134CA82200212000FEF7DFFC0323EA
:1041B000236163610F4AA2610F4BE3618023DB003F
:1041C00023620023A3626362E36222660B4A626693
:1041D0001022A2662367E366636706E00F22D21A05
:1041E0000749895C024AD15401330F2BF6D910BD1F
:1041F000501D0020047500104C1E00203C1E0020A5
:10420000207A0010F0B5D6464F464646C0B50500A8
:10421000894614002A4B1B78532B1FD1284B6A0068
:104220005219D2009B181E6FDB6E98469E4218D81A
:10423000002743469B1B9C4200D91C00002C31D117
:10424000002F05D01E4B6A005219D2009B181E6722
:104250003800E0BCBA46B146A846F0BDFFF7A0FF63
:10426000DCE7174B6A005219D2009B189B6E9B1B10
:1042700027009C4200D91F00114A6B005B19DB002C
:1042800092469A445346596E89193A004846FEF7B9
:1042900073FCB944E41BF61953469B6EB342C8D174
:1042A0000026C6E7064B6A005219D2009B18596EC9
:1042B000891922004846FEF75FFC3F193619BFE70F
:1042C000501D002010B50B00EFF31084012181F385
:1042D00010881900FFF796FF84F3108810BD0000C6
:1042E000F8B503000F001600421C5400A418E400A7
:1042F000174AA4184000C018C0001218D56A012D32
:104300000FD0022D1BD0002D1FD12000FFF7DEFEA5
:10431000864212D8320039002000FFF7E3FE350054
:104320000BE02000FFF7D2FE3500864200D90500E1
:104330002A0039002000FFF7D5FE2800F8BD320022
:104340002000FFF7F7FE0500F7E70025F5E7C04678
:10435000501D0020F8B504000D001600094B1B7815
:10436000532B0CD1EFF31087012181F31088320019
:1043700029002000FFF7B4FF87F31088F8BDFFF78E
:104380000FFFEFE7501D002010B5FFF709FF10BD2C
:1043900010B5040010220021FEF7E8FB80235B0229
:1043A0002360F8235B0263608023DB02A360C023E9
:1043B0001B03A360200010BD0120704770B50400EE
:1043C0000E0015008B79002B1CD1FFF7F5FF00289C
:1043D0001BD00523F356002B01DBAB4218D10E4B4B
:1043E0009C466444240D0D4BA400E258317901230E
:1043F0008B40013BAB401A4201D1002070BD092027
:104400004042FBE714204042F8E70B204042F5E72A
:104410000B204042F2E7C0460000E0AF4C220020F3
:10442000F8B506000D001700FFF7C8FF002822D1DD
:10443000002405E0DA19E31912339B009A51013484
:104440002B79A34208D92A686300D35A80229201AB
:104450009342EFD31A00EEE701229A401300013B8A
:10446000054A94466644360D0449B6007258BB406E
:10447000134373503800F8BD0000E0AF4C22002019
:1044800070B50A79202A18D8174B9C466044000D55
:10449000164B8000C45801239340013B497949B22F
:1044A000002910DB08002025AA1A914218DC8B4055
:1044B0001C4201D00120404270BD0D4B0D4A0E48F8
:1044C0004321FFF76DFC2020801A002805DB1A002D
:1044D00082401442F0D00138F7E709204042EBE770
:1044E00001204042E8E7C0460000E0AF4C22002037
:1044F00010750010347A00103C75001010B582B0B1
:10450000094BC418240DA400E31C0848084A009273
:104510002200FCF72EFC844202DC001B02B010BD1E
:1045200001204042FAE7C0460000E0AF58220020D8
:1045300078750010F8B505000E00FCF7EBFB0700DE
:1045400031002800FFF79CFF041E04DA3800FCF756
:10455000EDFB2000F8BD020031002800FFF760FFEE
:104560000400F3E7F0B5CE46474680B507AC2578A2
:104570001F2A4AD84C006618F60086193700DC3727
:104580003F68BC46CC363668B0466418E400C83490
:1045900004191F4EB1464C448026B6022660002DF9
:1045A00001D01F2614E0002612E05401A0256D055D
:1045B00025434C006418E40004192700DC373D60F3
:1045C000144D3543D8342560053B05321F24224065
:1045D000052BEAD89B06520113434C006218D20007
:1045E00082181500DC352B600A4B3343D832136038
:1045F00063462B606418E4000019CC304346036026
:104600000020C0BCB946B046F0BD05204042F8E7E6
:104610000430000080E0000070B584B004000D009C
:10462000160002680121A9408A430260002B36D09F
:1046300018686A005219D200A2181100C831086027
:10464000986808310860586804390860DB68DC3213
:1046500013606A005319DB00D033E318802149014D
:104660008C4663448021090619601960164BAB40E3
:10467000A360291D01231800884080218901611849
:1046800008602800083083400B601F233340521914
:10469000D200A418D8342360002004B070BD68464E
:1046A000FFF776FE00996B005B19DB00E3181A0038
:1046B000C83211600299083211600199043A116000
:1046C000039ADC331A60C4E701010101074B8342FE
:1046D0000AD0042301229A40054B1A60054B1B683F
:1046E00011009943FAD170470323F3E748120020E1
:1046F00000F0004008C00040F0B5DE4657464E4688
:104700004546E0B587B0070093461800039310AB09
:104710001A780592119D129A90463B680022DA663B
:104720003B6859603B680132DA6602900023994683
:104730000493002600242DE03B79002B39D001237F
:1047400037E0059A002A01D0002236E0012234E049
:1047500000214046A84706000443E4B2002E06D1DB
:104760003B685B6BDB0602D4002DF1D1F6E7002E2F
:1047700009D13B6880229A580492002A28D1002C43
:1047800039D1CA4527D0002C3DD101239C46E144B4
:10479000019B9B46029B994535DA039B013B9A4658
:1047A000002D02D001214046A8474B46002BC3D024
:1047B00000239B02CA45C4D00022520213435A462A
:1047C000013201925A4611783A680B431361CBE7E4
:1047D0005B6D01240FE0059B002BD4D10BE0002181
:1047E0004046A84706000443E4B2002E06D13B68C9
:1047F0005B6B9B0502D4002DF1D1F6E7002EC2D1F0
:104800003B681B6EBFE7002C08D0002E10D1049A25
:10481000002A11D0D30713D4130715D5059B3B717C
:10482000484607B0F0BCBB46B246A946A046F0BD1C
:1048300002235B429946F1E701235B429946EDE78B
:1048400001235B429946E9E701235B429946E5E78C
:10485000F0B5D6464F464646C0B505000C000520CB
:10486000FDF724F80600600880192100FDF70EFA14
:10487000070043009946814405214846FDF706FAA2
:1048800080463B1A9A46274B9C4225D870008019D7
:104890002549FDF7FBF9441C4346023BA34222D3C2
:1048A0002B680022DA662B68196804325140023204
:1048B0000A40802149018C4663441A602B685246A5
:1048C000DA612B6842461A624B464F2B11D95021B0
:1048D0004846FDF7DBF90DE0700080191349FDF73C
:1048E000D5F9441CD8E7124B124A13485D21FFF753
:1048F00057FA01202A68A023D0502B68DA6F544061
:104900002404240C0D4A944663441C602B68012245
:10491000DA6639003000FDF7B9F9E0BCBA46B146B5
:10492000A846F0BD3F420F008096980040787D0178
:104930009C7500104C7A0010BC7500107C100000B3
:1049400070B504000D00114B98421DD004220123C4
:1049500093400F4A13602000FFF7B8FE0023237135
:104960002268D36622686621FF3111602268D36312
:1049700022689363226888336339FF39D150290054
:104980002000FFF765FF70BD0322E0E7481200201A
:1049900000E0004030B585B008AC257800240294D2
:1049A00001940095FFF7A8FE05B030BD70B5050075
:1049B000082000F0B3F82900040000F0F1FF200007
:1049C000044A054900F06EFE200000F0BDF800F03A
:1049D00053F9C04699580010BC7B001070B5050013
:1049E000082000F09BF82900040001F01DF82000C9
:1049F000044A054900F056FE200000F0A5F800F03A
:104A00003BF9C046D9580010DC7B001010B580245B
:104A10000B68E405A34210D2581C934207D95200F8
:104A2000934204D2A24205D32000054B0B60FEF74F
:104A3000A9F810BD0A60501CF9E70248FFF7CEFF45
:104A4000FFFFFF3FF875001010B5012A05D0002ABE
:104A500000D110BDFEF790F8FBE70B780370F8E784
:104A600070B5194C083863680668002B20D085198A
:104A7000AB421DD85A6821D00434002A06D10DE07B
:104A800051681C1D1300002907D00A009542F7D871
:104A900003D12A68B6186A685A6023681A68991898
:104AA000884208D05B68066043602368586001E074
:104AB0004360606070BD92191A60FBE71B6842603A
:104AC0009B1903606060F5E71C1E0020020030B5F2
:104AD0000832083000D3082207230F4907324868FC
:104AE0009A430431002804D10EE0011D40680028DB
:104AF0000AD003689A42F8D845689C1A072C04D853
:104B000003602B000B60083030BD83185D600868BF
:104B10001C600260F6E7C0461C1E002070B58030A5
:104B20000500FEF70DF8041E07D0802200212000AA
:104B3000FEF71CF82000803070BD2800FFF7C6FF8C
:104B4000041EF2D100F04EFD074B80389A68DB68F6
:104B500010B5D318984201D2824202D3FDF7FAFF72
:104B600010BDFFF77DFFFBE71C1E0020F0B5CE4611
:104B70004746002580B53B4E89B03B487560B5601F
:104B8000F56001F0C1F808230293384B0400039349
:104B900009230593364B04950693042307930028B5
:104BA0003FD0344D237828003A3B5A425341E41811
:104BB0000F22210001F07EFE002802D1E37B2E2B84
:104BC00016D020003A2101F0ABF8041EEAD1079C70
:104BD000402C24DC049B002B00D106333E335C4385
:104BE000A400F46020D109B0C0BCB946B046F0BD05
:104BF00008AB9946103402AF3B6878689846002BA2
:104C000005D01A00210001F055FE002803D14346CB
:104C1000E35C3D2B13D00C37B945EDD1D1E74024EF
:104C2000D8E78824E400F4602000FDF789FFB06035
:104C3000002815D00023706004604360D3E740462D
:104C400001302018002201A901F0C2F9019C23784B
:104C50003A2B01D0002BB4D10028B2DBB860B0E70A
:104C6000F060C0E71C1E00201076001024760010B3
:104C7000307600103C7600101EB400F093F81EBC95
:104C800002F0F6F8F0B5C64600B51E0003780C0039
:104C900082B0472B1FD00020284D2B6801909B68C5
:104CA0002800984701239846002804D0019B1B68E0
:104CB000019302239846236829001F6920000123DD
:104CC00001AAB847002826D100239846404602B0E2
:104CD00080BCB846F0BD43784E2BDCD18378552B91
:104CE000D9D1C378432BD6D10379462B1BD0432B84
:104CF000D1D143792B2BCED183792B2BCBD1C27938
:104D0000012AC8D8002301930300203B1D68012A13
:104D100004D05830C1E7019B3360D7E72B00783BC4
:104D200028001D68B9E743794F2BB4D18379522B02
:104D3000B1D1C079024D0028AFD0ACE7E47A0010C1
:104D4000B87A001010B5040000F0FAF822002378B9
:104D5000203A472B05D08368002B20D182600120A8
:104D600010BD63784E2BF6D1A378552BF3D1E378A1
:104D7000432BF0D12379432BEDD163792B2BEAD14F
:104D8000A3792B2BE7D1E379012BE4D8D369013345
:104D9000D361012BE3D1836893618260DFE700F088
:104DA00021FCC04610B500F0CBF803008068002855
:104DB0002DD02022825C472A03D000229A60203026
:104DC00010BD263A825C4E2AF7D12C3A825C552AD5
:104DD000F3D1323A825C432AEFD11F3A825C432AF4
:104DE000EBD11E3A825C2B2AE7D1053A825C2B2A52
:104DF000E3D1043A825C012ADFD8C269013AC26178
:104E0000002ADCD182699A6000238361D7E700F031
:104E1000E9FBC04670B5040000F092F82200237848
:104E20000568203A472B04D0002D2BD102602800C2
:104E300070BD63784E2BF7D1A378552BF4D1E3786E
:104E4000432BF1D12379432BEED163792B2BEBD17B
:104E5000A3792B2BE8D1E379012BE5D85369002BFB
:104E60000DDB013353614368013B4360954201D040
:104E7000156102602000656A02F002F8D7E701219F
:104E8000CB1AEFE700F0AEFB10B500F055F8036861
:104E9000002B09D020229A5C472A06D0002220331A
:104EA0000260180001F0CCFF10BD263A9A5C4E2A31
:104EB000F4D12C3A9A5C552AF0D1323A9A5C432AC2
:104EC000ECD11F3A9A5C432AE8D11E3A9A5C2B2A0D
:104ED000E4D1053A9A5C2B2AE0D1043A9A5C012A83
:104EE000DCD85A69002A08DB511E012A0CD04A1C62
:104EF00001D05961D8E700F075FB511C0132F8D19F
:104F00001A6902605961CFE71A69203302601800FC
:104F100001F096FFC8E7C0467047C0467047C046DC
:104F2000004870474C76001010B504000421FDF7CE
:104F300031FE200010BDC04600487047101E002002
:104F400000487047101E0020F0B5D64646464F4632
:104F50008A46C0B50600502824D00F2404400C2CEB
:104F600000D96FE03848A40000598746547810787B
:104F700024020443907800042043D4782406044398
:104F8000101D002C08D070253540102D00D1924600
:104F900076B25444002E0ADB1C60E0BCBA46B1462F
:104FA000A846F0BDD01C0322904310C8F4E7246843
:104FB000F2E75478107824020443907800042043E8
:104FC000D4782406044310000830DAE754781078C7
:104FD00024020443901CD4E754781078240204433C
:104FE00024042414901CCCE77F2115000024002702
:104FF00088464046297801350840B840044348B205
:1050000007370028F5DB28001F2FBAD84D06B8D582
:105010000125BD406D422C43B5E700218C467F3110
:105020001500002488464746614628780135074028
:105030008F400721894640B23C43CC440028F2DB34
:1050400028009EE701F010F8007B0010030010B567
:105050000800FF2B10D070221340302B13D004D83F
:10506000202B07D101F0C4FE07E0402B06D101F050
:105070000FFF02E0202B04D8002010BD0020502B91
:10508000FBD000F0F1FF01F0E3FEF6E7F8B5050014
:105090000E0014000020002D02D0280001F0F8FEC0
:1050A0002060771C3678FF2E28D160603B78781C12
:1050B000FF2B32D01023002500217F2623753200DC
:1050C000037801301A408A405BB215430731002B48
:1050D000F5DB4519E560002200257F2603780130C5
:1050E0006375310003780130194091405BB20D4384
:1050F0000732002BF5DB45192561F8BD290030008A
:10510000FFF7A4FF3A000100231D3000FFF71CFF4A
:1051100007003B78781CFF2BCCD100252375D9E7FD
:10512000F0B557464546DE464E460023E0B597B0FB
:105130000C9303330F0090460340012B00D1AEE0E7
:10514000022B0ED14146380001F072FE002800D03B
:10515000A3E0082017B0F0BCBB46B246A946A04663
:10516000F0BD002B00D033E208331C0004400342A2
:10517000E8D1012510AB0393039B0C22002100937F
:1051800040460023109701F04BFE404601F0A8FE78
:1051900004900028D6D02C43039D04992A00404651
:1051A0000594FFF773FF2B7D41460400180006931A
:1051B000FFF74CFF0FABA8600F22079000939B46B0
:1051C00000210023404601F073FE01220F9B934310
:1051D000013B99462B699A469C4242D2109B6E7DB8
:1051E00002933B007F2527004C4699460021300062
:1051F000FFF72CFF3A0001000DAB3000FFF7A4FED3
:10520000002107003000FFF721FF3A0001000EAB3C
:105210003000FFF799FE002107003000FFF716FF6E
:105220003A0001005B463000FFF78EFE00210022AD
:105230002F00037801301F4097405BB2394307329B
:10524000002BF5DB029A0D9B94466344A34207D8DA
:105250000E9A9B18A34200D985E007008245C5D865
:105260004F46002300259A460133059AD20771D58F
:105270000C9B0B935B460D220093002100234046BC
:1052800001F016FE0F9B06203B620B9B3D637B6289
:105290005346BB62049BFB625CE709205AE7082384
:1052A0001C0010AA04400392034201D0022563E7C8
:1052B0000D6A0023009200210D22404601F0F8FD06
:1052C000109B9D42F2D1039B0C22009300210023EE
:1052D0004046109701F0A4FD3D6BBC6AFB6A002DAF
:1052E0003ED004930FABA2469B465346002B00DAF8
:1052F000B8E003265B4600220021009340460023CD
:105300000F9701F08DFD5B4601220021009340467E
:1053100000230F9401F084FD5B460F2200210093CF
:105320004046002301F0C4FD01230F9A00211340E1
:105330002B430F935B460F2200934046002301F05E
:105340006FFD022E01D0072004E73800FFF7FAFCBA
:105350000720FFE6082205990A426DD1012B7FD173
:10536000380000F037FC0F9B4F46002B00D1E9E6D8
:10537000039A55685D19002900D10AE14C1E544476
:10538000002D00D1DEE6059A0823110019400A918C
:10539000134200D100E13F333B7007337B7007338A
:1053A000BB70123BFB7003333B7109337B710333DA
:1053B000BB710023FB710023069A994607331A40FC
:1053C00043460993039BBA469846029208950023E8
:1053D00000217F252A002078013402408A401343AF
:1053E00042B20731002AF5DB1F2905D8400603D554
:1053F00001228A40524213431E0020000025002251
:105400007F279C46390003780130194091400D43B5
:1054100059B207320029F5DB190063461F2A3ED82E
:1054200049063CD5012191404A421543002B4BD1FE
:10543000012399466419CAE7012B00D1C6E05346FF
:10544000002B00DABEE05446032653E7099BAB4627
:105450009846059BB2462700089DDB0700D507E765
:10546000544642E7039E049932004046FFF70EFE81
:105470004146307DFFF7EAFDE343F1689B00C91820
:105480000B68002B05D0002301339A008A58002AAC
:10549000FAD1BB620423F8623B63796329E7002BEE
:1054A00012D101239946002DC4D1099B5746984635
:1054B0004B46089D002B00D144E6059BDB0700D539
:1054C00040E60024022615E7002B14DC4246DB43AD
:1054D000D7689B00FF1853463968002B02D00A9BFF
:1054E000002B2CD00029DED1099B57469846B246A6
:1054F0000323089DB9E6069AFF2A48D0029A022A99
:1055000042D03CD9029A032A3BD0042A60D1DB0066
:105510005B424246D2680799D21806985B46FFF76D
:1055200013FD0F990029DFD05346002BBBD000227A
:1055300050460CABFFF7A6FB0028B4D0D4E70C9B79
:105540000B930F93002932D053465A46A246AB46DE
:105550001C00150004E079680437002900D175E7C4
:105560002B00002220007918FFF78CFB0028F2D0D6
:1055700022002B0054465D4692469B4693E7002A44
:1055800026D19B005B42C4E75B005B42C1E700237E
:10559000BFE7002D91D1D5E53B00FA795833012AB8
:1055A00001D00C9307E7783B1B680C9303E7099B3A
:1055B00057469846059BB246089DDB0700D559E63D
:1055C000544692E600F01AF8FFF724FC00F00AF8BF
:1055D00000F04AFD10B5804700F046FDFFF71AFCC9
:1055E00000F042FD024B10B51868FFF7F3FFC0460C
:1055F0005412002010B58047FFF7F4FF024B10B59E
:105600001868FFF7F7FFC04650120020014B1868DA
:105610007047C04654120020014B18687047C046BE
:105620005012002010B5012812D80B00283B1A6830
:10563000501E1860012A00D010BDDB6858310C00E4
:10564000002B01D0080098472000FFF77DFAF3E710
:1056500028394869FFF7BEFF70B505000026803D78
:10566000EA602E60A9600400FFF7D6FF2861FFF70B
:10567000CDFF23004722583B68611A7007325A70E9
:1056800007329A7022004323553A13705370183B27
:105690009370D370024B513C280026702B6370BD71
:1056A0002556001070B504000D001600FFF748FCE9
:1056B000436832000133290043602000FFF7CCFF2C
:1056C0000400012328340360200001F001FC2000C5
:1056D000FFF7A0FBFFF786FF10B5FFF731FC43682B
:1056E000046801334360002C0CD02023E35C472B7B
:1056F0000AD0002303602034200001F0E1FB2000E9
:10570000FFF788FBFFF76EFF263BE35C4E2BF0D1E3
:105710002C3BE35C552BECD1323BE35C432BE8D1D3
:105720001F3BE35C432BE4D11E3BE35C2B2BE0D11E
:10573000053BE35C2B2BDCD1043BE35C012BD8D88D
:1057400063695B426361D6E710B50400024B0360F6
:1057500000F0CAF9200010BD707B001010B50400E5
:10576000044B036000F0C0F920000C21FDF712FA91
:10577000200010BD707B0010F0B583B01E00089BA8
:1057800005000F00140093420AD0A868089A036825
:1057900000921D6A220033003900A84703B0F0BD13
:1057A000310000F05FF80028EFD00620F6E7C04691
:1057B000F0B50E0085B01900040017001D0000F0C0
:1057C00051F8002814D10A9B0C9A93422AD0A06861
:1057D0000D9A036803920C9A310002920B9A01927F
:1057E0000A9A0092DC693A002B00A04705B0F0BD90
:1057F0000D9B0A9A1F711A60002E0CDB93190C9AEC
:10580000D31A5A1E934104225B4293430D9A0633E6
:1058100093710020EAE70236FBD101230D9A0020A4
:105820009371E3E720000B9900F01CF80028CED01C
:105830000D9B00205F71D9E7F8B507000C0015003B
:105840001E0000F089F9002806D1B8682A00036814
:1058500021009F693300B847F8BDC0467047C04675
:105860000020704710B5814211D0406803782A2B80
:105870000BD049680B782A3B5A425341C91800F0B3
:10588000B1FA43425841C0B210BD0020FCE70120EC
:10589000FAE7C046406870470D4B10B50360436897
:1058A000040018000B4A0C3882B0904205D1200049
:1058B000FFF732FB200002B010BD043B1A68511EF6
:1058C0001960002AF3DC01A900F0E6F8EFE7C04612
:1058D000F07B00102C1E00200D4B10B503604368B8
:1058E000040018000B4A0C3882B0904205D1200009
:1058F000FFF712FB200002B010BD043B1A68511ED6
:105900001960002AF3DC01A900F0C6F8EFE7C046F1
:10591000F07B00102C1E00200E4B10B50360436876
:10592000040018000C4A0C3882B0904208D12000C4
:10593000FFF7F2FA2000FDF729F9200002B010BDB0
:10594000043B1A68511E1960002AF0DC01A900F01E
:10595000A3F8ECE7F07B00102C1E00200E4B10B5D6
:1059600003604368040018000C4A0C3882B090426F
:1059700008D12000FFF7D0FA2000FDF707F920003A
:1059800002B010BD043B1A68511E1960002AF0DCF9
:1059900001A900F081F8ECE7F07B00102C1E00203C
:1059A000F0B5C64600B51C4B04000D0082B0036084
:1059B000002929D0080001F01DF8061E02D1174B5E
:1059C000984611E0002101AA00F038F80C2398460F
:1059D00007008044012E0ED0320029004046FDF71A
:1059E000CBF80F4B9F4209D143462000636002B0C1
:1059F00080BCB846F0BD2B780373F2E700233E600D
:105A0000BB60BF193B73EFE70648FEF7CFFF2000EE
:105A1000FFF782FAFFF730F9F07B0010381E002004
:105A20002C1E00206076001010B50400FFF7B8FFB0
:105A3000014B2000236010BD047C0010144B10B5F6
:105A40000400984221D8884215D94B00984200D2D0
:105A50001C002300200080221D330D305201934290
:105A60000BD9A14209D294461B051B0D6444E41ACC
:105A7000074B9C4207D820000D30FDF783F8002328
:105A80004460836010BD1C00F5E70248FEF7A6FFE6
:105A9000FCFFFF3F8C76001010B5FDF777F810BDC6
:105AA000002330B51400102285B0009301930393B6
:105AB000036802929D6922686B46A8476B461A7973
:105AC000062300201340062B02D1009B01302360E7
:105AD00005B030BD009B05209A1A53425A415242EC
